:100000000C940D060C9454060C9454060C9454064F
:100010000C9454060C9454060C9454060C945406F8
:100020000C9454060C9454060C94310E0C94030F4B
:100030000C946F1E0C9454060C9454060C945406A5
:100040000C9454060C9454060C9454060C945406C8
:100050000C9454060C94D71E0C9454060C9454061D
:100060000C9454060C9454060C9454060C945406A8
:100070000C9454060C9454060C9454060C94540698
:100080000C9454060C9454060C9454060C94540688
:100090000C9454060C9454060C9454060C94540678
:1000A0000C9454060C9454060C945406700F920F42
:1000B0008010920F8010D70FFA0F80104F1062102F
:1000C000A413A413D313D3132D146B147416741622
:1000D00084147416851585154816741674165F16E3
:1000E000F1A100000000000000000000000000007E
:1000F0000000000025142614241427146402271479
:1001000024022D14250226026414641432023014D1
:10011000291E1F2021220000000023242526272D30
:100120002B141A081517000000001C180C12132FAE
:10013000E0041607090A4D4A4B4E0B0D0E0F3334DF
:10014000E11D1B06190500E2E6001110363738E5FF
:1001500064CE504FC02A4CE0E4282CC05251D757EF
:10016000453A3B3C3D3E000000003F404142434495
:10017000350101010101000000000101010101013F
:1001800001CACBCCCD3201010101CFD0D1D2D201F5
:10019000D601010101490001010055010101CFD043
:1001A000D401010101010101010101010101015518
:1001B0000A002530313662003A20002530325800DE
:1001C0000A722F63203031323334353637383941B3
:1001D00042434445460A000A002530325800626F07
:1001E000756E6365213A20005B735D004B65796233
:1001F0006F6172642073746172742E0A00555342E9
:1002000020636F6E666967757265642E0A005B57BE
:100210005D005B535D005B525D005B445D005B43D2
:100220005D000E03440061006300740079006C00FF
:1002300000000C0347006F0046006C006F000000D8
:100240000403090409028D00050100A0320904001D
:10025000000103010100092111010001223F0007F3
:1002600005810308000A09040100010301020009D5
:100270002111010001224D000705820308000A092F
:1002800004020001030000000921110100012236CF
:10029000000705830308000A0904030002030000A5
:1002A000000921110100012220000705840320001C
:1002B00001070504032000010904040001030000F4
:1002C00000092111010001223900070585031000F2
:1002D000011201100100000008EDFE606001000144
:1002E00002000105010906A101050719E029E7152A
:1002F0000025019508750181020508190129059558
:1003000005750191029501750391010507190029F1
:100310007715002501957875018102C00631FF0926
:1003200074A1010975150025FF9520750881020942
:1003300076150025FF952075089102C005010980FA
:10034000A101850216010026B7001A01002AB70094
:10035000751095018100C0050C0901A101850316E6
:100360000100269C021A01002A9C02751095018149
:1003700000C005010902A1010901A1000509190137
:100380002905150025019505750181029501750363
:1003900081010501093009311581257F9502750814
:1003A000810609381581257F950175088106050CA0
:1003B0000A38021581257F950175088106C0C005A0
:1003C000010906A101050719E029E7150025019596
:1003D0000875018102950175088101050819012937
:1003E00005950575019102950175039101050719A0
:1003F0000029FF150025FF950675088100C00A0039
:100400002530325820006B6579626F6172645F72CB
:1004100065706F72743A20000A0025303258006B04
:100420006579626F6172645F7365745F6C65643A6D
:10043000200064656C5F6B65795F6269743A206364
:10044000616E27742064656C3A20253032580A00AA
:100450006164645F6B65795F6269743A2063616EA1
:100460002774206164643A20253032580A00646F92
:100470006E652E0A00626F6F676D61676963207336
:1004800063616E3A202E2E2E2000290A0025750069
:100490002F002575005D28002564002000256400DC
:1004A000200025640020002564007C00253032589F
:1004B000006D6F7573656B6579205B62746E7C7817
:1004C0002079207620685D287265702F61636C2921
:1004D0003A205B006D6B5F776865656C5F74696D72
:1004E000655F746F5F6D6178203D2025640A006D43
:1004F0006B5F776865656C5F6D61785F737065656C
:1005000064203D2025640A006D6B5F74696D655F32
:10051000746F5F6D6178203D2025640A006D6B5F0C
:100520006D61785F7370656564203D2025640A0005
:100530006D6B5F696E74657276616C203D20256419
:100540000A006D6B5F64656C6179203D2025640A4B
:10055000006D6B5F776865656C5F74696D655F746E
:100560006F5F6D6178203D2025640A006D6B5F77B9
:100570006865656C5F6D61785F7370656564203D6B
:100580002025640A006D6B5F74696D655F746F5F31
:100590006D6178203D2025640A006D6B5F6D617888
:1005A0005F7370656564203D2025640A006D6B5F94
:1005B000696E74657276616C203D2025640A006D59
:1005C0006B5F64656C6179203D2025640A000A0038
:1005D000257500363A20776865656C5F74696D65CE
:1005E0005F746F5F6D61783A20000A0025750035F1
:1005F0003A20776865656C5F6D61785F73706565DB
:10060000643A20000A00257500343A2074696D654B
:100610005F746F5F6D61783A20000A0025750033C2
:100620003A206D61785F73706565643A20000A0056
:10063000257500323A20696E74657276616C286D9A
:1006400073293A20000A00257500313A2064656C50
:100650006179282A31306D73293A20000A092D204A
:1006600056616C756573202D0A004D3E004D256462
:100670003E20003F007365742064656661756C748C
:100680000A00433E200077686572652064656C74DB
:10069000613A20637572736F723D25642C20776810
:1006A00065656C3D25640A53656520687474703A0D
:1006B0002F2F656E2E77696B6970656469612E6F87
:1006C00072672F77696B692F4D6F7573655F6B6507
:1006D00079730A000A092D204D6F7573656B657972
:1006E000202D0A4553432F713A09717569740A31F7
:1006F0003A0964656C6179282A31306D73290A32B0
:100700003A09696E74657276616C286D73290A33D3
:100710003A096D61785F73706565640A343A0974EB
:10072000696D655F746F5F6D61780A353A09776846
:1007300065656C5F6D61785F73706565640A363AF4
:1007400009776865656C5F74696D655F746F5F6D6F
:1007500061780A0A703A097072696E742076616C69
:100760007565730A643A097365742064656661751A
:100770006C74730A75703A092B310A646F776E3A9C
:10078000092D310A706775703A092B31300A70678C
:10079000646F776E3A092D31300A0A7370656564AB
:1007A000203D2064656C7461202A206D61785F7340
:1007B00070656564202A2028726570656174202F39
:1007C0002074696D655F746F5F6D6178290A003F01
:1007D000004D3E2000433E20004C25640A000A09DB
:1007E0002D20436F6E736F6C65202D0A4553432F88
:1007F000713A09717569740A6D3A096D6F7573659F
:100800006B65790A000A092D204D61676963202D07
:100810000A643A0964656275670A783A0964656230
:100820007567206D61747269780A6B3A0964656254
:100830007567206B6579626F6172640A6D3A09644D
:1008400065627567206D6F7573650A763A0976651E
:100850007273696F6E0A733A097374617475730AFF
:10086000633A09636F6E736F6C65206D6F64650A20
:10087000302D343A096C61796572302D3428463157
:10088000302D4634290A506175733A09626F6F74CE
:100890006C6F616465720A653A09656570726F6DA7
:1008A0000A6E3A094E4B524F0A000A002575002E77
:1008B0006E6B726F3A20000A002575002E73776107
:1008C000705F6261636B736C6173685F6261636BBD
:1008D00073706163653A20000A002575002E7377F6
:1008E00061705F67726176655F6573633A20000AC5
:1008F000002575002E6E6F5F6775693A20000A004B
:100900002575002E737761705F72616C745F72671A
:1009100075693A20000A002575002E737761705FB3
:100920006C616C745F6C6775693A20000A0025750C
:10093000002E636170736C6F636B5F746F5F636FC6
:100940006E74726F6C3A20000A002575002E737762
:1009500061705F636F6E74726F6C5F636170736CF4
:100960006F636B3A20000A0025303258006B6579BE
:100970006D61705F636F6E6669672E7261773A2092
:10098000000A002575002E6D6F7573653A20000A08
:10099000002575002E6B6579626F6172643A2000E4
:1009A0000A002575002E6D61747269783A20000A7C
:1009B000002575002E656E61626C653A20000A00A4
:1009C000253032580064656275675F636F6E6669D3
:1009D000672E7261773A20000A002575006465660B
:1009E00061756C745F6C617965723A20003F004EEE
:1009F0004B524F3A206F66660A004E4B524F3A20D8
:100A00006F6E0A0074696D65725F636F756E743A1C
:100A1000202530346C580A006B6579626F6172640E
:100A20005F6E6B726F3A2025580A006B6579626FB2
:100A30006172645F69646C653A2025580A006B65D1
:100A400079626F6172645F70726F746F636F6C3A1A
:100A50002025580A00686F73745F6B6579626F6157
:100A600072645F6C65647328293A2025580A000A6D
:100A7000092D20537461747573202D0A0047434378
:100A80003A20342E392E32204156522D4C494243C1
:100A90003A20312E382E3073766E204156525F4107
:100AA0005243483A20617672350A004F5054494FFC
:100AB0004E533A204C55464120424F4F544D4147EA
:100AC0004943204D4F5553454B45592045585452A5
:100AD000414B455920434F4E534F4C4520434F4DBA
:100AE0004D414E44204E4B524F20343039360A008F
:100AF0004255494C443A20756E6B6E6F776E2028D4
:100B000031363A32373A3230204A616E203238205C
:100B100032303138290A005649443A203078464567
:100B2000454428476F466C6F29205049443A20308D
:100B300078363036302844616374796C2920564504
:100B4000523A203078303030310A00444553433A2D
:100B500020742E6D2E6B2E206B6579626F6172642E
:100B6000206669726D7761726520666F72204461DC
:100B70006374796C204B6579626F6172640A000A54
:100B8000092D2056657273696F6E202D0A000A6D5B
:100B90006F7573653A206F66660A000A6D6F75732C
:100BA000653A206F6E0A000A6B6579626F61726444
:100BB0003A206F66660A000A6B6579626F6172643B
:100BC0003A206F6E0A000A6D61747269783A206F7C
:100BD00066660A000A6D61747269783A206F6E0A5F
:100BE000000A64656275673A206F6E0A000A6465E0
:100BF0006275673A206F66660A000A0A626F6F7450
:100C00006C6F616465722E2E2E2000433E200065BD
:100C100065636F6E6669673A0A0011241FBECFEFE5
:100C2000DAE0DEBFCDBF04B603FE27C08091E60147
:100C30009091E701A091E801B091E9018730904BD4
:100C4000A740B04BD1F41092E6011092E701109248
:100C5000E8011092E90114BE84B7877F84BF0FB604
:100C6000F894A8958091600088618093600010924C
:100C700060000FBEE0E0F8E3099511E0A0E0B1E00C
:100C8000E0EAF4E502C005900D92A833B107D9F768
:100C900021E0A8E3B1E001C01D92A63EB207E1F752
:100CA0000E94620B0C944E2A0C940000FF93EF9369
:100CB000E0913801F0913901309709F00995EF91F1
:100CC000FF910895FC018591803011F0EFDFFBCF9B
:100CD0000895FF27E0E230E247FF0CC0419597FFFF
:100CE00009C0EDE26095709580959095611D711D2C
:100CF000811D911D27FF02C0219530E350E2AA27F4
:100D0000660F771F881F991FAA1FA41710F0A41B36
:100D100063955A95A9F7AA3008F0A95FA05DAF9333
:100D2000F395611571058105910541F7ED3211F4D7
:100D3000EF93F395F21718F43F93F395FBCF8F9150
:100D4000B5DFFA95E1F70895E991F9918591803041
:100D500021F0853219F0AADFF9CF089520E0E89458
:100D600055915532C1F3503311F4689455915A336B
:100D700048F4505390F3220F022E220F220F200D21
:100D8000250FF4CF0EF4219589919991533619F3DB
:100D9000533729F1533559F1BC0188279927E89435
:100DA0005C3621F48991999168945591543639F4BF
:100DB00046EF7EF077FF0DC08FEF9FEF0AC05537EB
:100DC0004AE039F0583540E121F0523642E009F06E
:100DD0000895FF93EF937DDFEF91FF91B7CFFF93DE
:100DE000EF93FC0181918030B9F360DFFBCFFF937B
:100DF000EF9368DFF1CFDF93CF93CDB7DEB72596C2
:100E0000A3DFCF91DF910895E72FF0E095E0899F70
:100E1000E00DF11D112484E0EE0FFF1F8A95E1F72C
:100E2000E60FF11DE05FFE4F84910895E82FF0E09A
:100E3000EE0FFF1FE05AF04085919491089580B322
:100E40008C7880BB81B3836781BB08950E941F07A4
:100E500087988F9A84B1837084B985B18C6F85B976
:100E60008AB180748AB98BB18F6B8BB987B18F735C
:100E700087B988B1806C88B9E4E4F1E0AAE3B1E015
:100E8000119211921D921D9281E0EE34F807C1F784
:100E90000895AF92BF92CF92DF92EF92FF920F939D
:100EA0001F93CF93DF930AE311E0E801A12CBB2449
:100EB000B394E9EDCE2EE1E0DE2E82E0A81691F0AB
:100EC0008A1520F091E0A91651F006C0A3E0AA16F9
:100ED00061F0B4E0AB1661F0809A88980BC0819AFB
:100EE000899808C0849A8C9805C0859A8D9802C00C
:100EF000869A8E9880EA8A95F1F783B186958695D1
:100F000086958B2580FBEE24E0F8F12C83B1082E2A
:100F1000000C990B809590958827990F881F992729
:100F2000880F991F8E299F29489903C024E030E03B
:100F300002C020E030E0282B392B499903C068E03B
:100F400070E002C060E070E0262B372B1A9903C0D6
:100F500040E150E002C040E050E0242B352B4A999C
:100F600003C0E0E2F0E002C0E0E0F0E02E2B3F2B17
:100F70004B9903C060E470E002C060E070E0262B93
:100F8000372B369903C040E850E002C040E050E003
:100F9000C901842B952B49B1042E000C550B4095AB
:100FA00050959A012227330F221F3327322F2227F1
:100FB000282B392B1E9903C080E092E002C080E00C
:100FC00090E0A901482B592B2FB1022E000C330BB6
:100FD00020953095C9018827990F881F9927982F48
:100FE0008827990F990F842B952B1C9903C060E0DB
:100FF00078E002C060E070E0862B972B1D9903C05B
:1010000060E070E102C060E070E0862B972B4D99A4
:1010100003C040E050E202C040E050E0842B952B3A
:101020004C9903C020E030E402C020E030E0822B85
:10103000932B379903C020E030E802C020E030E075
:10104000822B932B288139812817390749F19983FD
:10105000888380910001882301F18091C70180FF7E
:1010600004C08EED91E00E9462068091C70180FF6E
:101070000CC0809100011F928F93DF92CF920E944B
:10108000FB060F900F900F900F908091C70180FF8B
:1010900004C087ED91E00E94620685E08093000124
:1010A0000E941F07A394229695E0A91206CF809173
:1010B00000018823C1F0815080930001882339F01A
:1010C000AFE9BFE01197F1F700C000000CC0E4E405
:1010D000F1E0D8018D919D918D0181939193B1E0C3
:1010E00004341B07B1F781E0DF91CF911F910F917D
:1010F000FF90EF90DF90CF90BF90AF900895E82FD2
:10110000F0E0EE0FFF1FEC5BFE4F808191810895B0
:10111000CF92DF92EF92FF920F931F93CF93DF93C3
:1011200080EC91E00E94620684E4E82E81E0F82ED3
:10113000C0E0D0E09BEBC92E91E0D92E02EB11E08C
:10114000DF93CF93DF92CF920E94FB0688EB91E072
:101150000E946206F701819191917F010E94131E06
:101160009F938F931F930F930E94FB0680EB91E058
:101170000E94620621968DB79EB708960FB6F89426
:101180009EBF0FBE8DBFC530D105D1F6DF91CF9187
:101190001F910F91FF90EF90DF90CF90089581FF06
:1011A00003C0209A289A02C02098289882FF03C082
:1011B000219A299A02C02198299880FF03C0389A61
:1011C000409A0895389840980895399A61FF02C06E
:1011D000419A0895419808958091610108959FB7BB
:1011E000F894109250019FBF9091DD01943009F066
:1011F00057C09091E9009F703091EC00232F21702F
:1012000030FD20E8922B24E02093E9002091EB00B0
:1012100020FF43C02091EE0027FF3FC020914E01E8
:10122000222321F02091E80025FF37C010924E01C3
:1012300026E03091E80035FD15C03091DD013430F5
:1012400061F53091EB0035FD28C0215021F481E09B
:1012500080934E0122C0EFE9FFE03197F1F700C023
:101260000000E7CF8093F1008091E80085FD0AC07F
:101270008091E80080FFFCCF8091E8008E7780931A
:10128000E80006C08FB7F89421E0209350018FBF8B
:101290009F709093E90080E008959F709093E9001B
:1012A0008FEF0895CF93DF9300D01F92CDB7DEB7B5
:1012B0009C018091DD01843019F593E099833B8393
:1012C0002A839093E9008FEF9091E800815095FD7B
:1012D00006C095ED9A95F1F700008111F5CF809148
:1012E000E80085FF0DC040E050E063E070E0CE0113
:1012F00001960E94210C8091E8008E778093E8008F
:101300000F900F900F90DF91CF910895CF93DF93BF
:1013100000D01F92CDB7DEB72091DD01243021F53A
:1013200022E029839B838A8383E08093E9008FEF07
:101330009091E800815095FD06C095ED9A95F1F7E2
:1013400000008111F5CF8091E80085FF0DC040E0DD
:1013500050E063E070E0CE0101960E94210C809184
:10136000E8008E778093E8000F900F900F90DF9148
:10137000CF9108952091DD012430F1F422E02093F3
:10138000E9002FEF3091E800215035FD06C035ED22
:101390003A95F1F700002111F5CF2091E80025FFE3
:1013A0000BC040E050E065E070E00E94210C8091AD
:1013B000E8008E778093E8000895CF93DF93209123
:1013C000DD01243009F048C0EC0180910B01882335
:1013D000E1F080910C018823C1F085E08093E90061
:1013E0008FEF9091E800815095FD06C095E19A95A8
:1013F000F1F700008111F5CF8091E80085FF2CC046
:1014000040E050E060E170E017C081E08093E900C7
:101410008FEF9091E800815095FD06C095ED9A956B
:10142000F1F700008111F5CF8091E80085FF14C02D
:1014300040E050E068E070E0CE010E94210C809115
:10144000E8008E778093E80080E1FE01A1E5B1E03D
:1014500001900D928A95E1F7DF91CF9108958EE189
:1014600092E00E9462068091DC01811109C00E9415
:10147000B60D0E94130E8091E20084608093E2001A
:1014800008958AE192E00E9462061092DC010895BC
:1014900086E192E00C94620682E192E00C9462068E
:1014A0008EE092E00E9462060C946D1E20914F0126
:1014B0002F5F822F62E30E94E329992319F0209382
:1014C0004F01089510924F0180915001882371F1CE
:1014D0008091DD01843041F58091E9008F70209189
:1014E000EC00922F917020FD90E8892B94E090936E
:1014F000E9009091EB0090FF14C09091EE0097FFEF
:1015000010C09091E80095FF03C01092F100F9CF50
:101510009091E80090FF05C09091E8009E7790932D
:10152000E8008F708093E90010925001089542E026
:1015300061EC81E00E94300D42E061EC82E00E94AB
:10154000300D42E061EC83E00E94300D42E261EC3C
:1015500084E00E94300D42E161EC85E00C94300D96
:101560008091DF01833009F455C030F4813071F08F
:10157000823009F48EC008958A3009F47AC08B3025
:1015800009F460C0893009F09CC020C08091DE0160
:10159000813A09F096C08091E800877F8093E80047
:1015A0008091E2019091E301892B21F460E181E5D2
:1015B00091E003C060E080E090E070E00E946C0C7D
:1015C0008091E8008B778093E80008958091DE0198
:1015D000813209F076C08091E2019091E301009799
:1015E00019F0049709F06DC08091E800877F80931F
:1015F000E8008091E80082FD05C08091DD01811145
:10160000F8CF5FC08091F100809361018091E80084
:101610008B7753C08091DE01813A09F052C08091EE
:10162000E2019091E301892B09F04BC08091E80021
:10163000877F8093E8008091E80080FFFCCF809155
:101640000B0136C08091DE018132D9F58091E20133
:101650009091E301892BA9F58091E800877F809321
:10166000E8000E94650D8091E00180930B010C94CD
:1016700096168091DE01813221F58091E800877F06
:101680008093E8000E94650D8091E10180936201E2
:1016900008958091DE01813AA1F48091E800877F6E
:1016A0008093E8008091E80080FFFCCF8091620188
:1016B0008093F1008091E8008E778093E8000C948D
:1016C000650D089584B7877F84BF0FB6F894A895F9
:1016D00080916000886180936000109260000FBE6E
:1016E00090E080E80FB6F8948093610090936100D9
:1016F0000FBE0E942A110E94B60D0E94130E809107
:10170000E20084608093E2008FEE98E00E94F81D72
:1017100078948091DD018430E1F78DEF91E00E94B3
:1017200062060E942C1181E091E00E9498108CEEDC
:1017300091E00E9462068091DD01853089F488EE97
:1017400091E00E9462060E942D1E8091DB01882399
:1017500091F30E94581E882371F30E940B0CEBCF6B
:101760000E945A11E8CF292F332723303105C9F0C1
:1017700064F42130310581F02230310509F043C095
:101780008DE890E024E432E042C021323105F1F0EE
:101790002232310541F137C082E190E021ED32E0A3
:1017A00036C099278130910541F08230910541F092
:1017B000892B49F5E0E4F2E005C0E2E3F2E002C083
:1017C000E2E2F2E0849190E09F0121C06530D8F41C
:1017D000E62FF0E0EE0FFF1FEC5DFE4F2081318120
:1017E00089E090E014C0653070F470E0FB01EE0F0A
:1017F000FF1FE65EFE4F20813181FB01EB5EFE4F55
:10180000808190E004C080E090E020E030E0FA01C8
:1018100031832083089580E189BD82E189BD09B4C7
:1018200000FEFDCF8091D8008F7D8093D8008091FD
:10183000E00082608093E0008091E00081FDFCCFB9
:101840000895CF92DF92EF92FF920F931F93CF9361
:10185000DF93EC018B016A010E94840D811133C07A
:10186000C114D10439F0F60180819181081B190B54
:10187000C80FD91FE12CF12C0115110519F1809128
:10188000E80085FD16C08091E8008E778093E8001F
:10189000C114D10449F0F60180819181E80EF91E4E
:1018A000F182E08285E00FC00E94840D882321F33D
:1018B0000AC089918093F10001501109FFEFEF1ADE
:1018C000FF0ADACF80E0DF91CF911F910F91FF9057
:1018D000EF90DF90CF9008952091E4013091E501E1
:1018E0002617370748F06115710539F42091E80093
:1018F0002E772093E80001C0B90140E06115710521
:10190000A9F12091DD01222309F443C0253009F417
:1019100042C02091E80023FD40C02091E80022FD54
:1019200032C02091E80020FFE9CF4091F3002091E0
:10193000F20030E0342BFC01CF016115710559F044
:101940002830310540F481918093F1006150710994
:101950002F5F3F4FF1CF41E02830310509F040E0E3
:101960002091E8002E772093E800C8CF4111C9CF1D
:101970000AC08091DD01882361F0853061F080919B
:10198000E80083FD0AC08091E80082FFF2CF80E08A
:10199000089582E0089583E0089581E008952091FC
:1019A000E4013091E5012617370748F0611571050C
:1019B00039F42091E8002E772093E80001C0B901A6
:1019C000FC0120E06115710591F18091DD01882312
:1019D00009F440C0853009F43FC08091E80083FDE0
:1019E0003DC08091E80082FD2FC08091E80080FF1B
:1019F000E9CF2091F3008091F20090E0922B6115E5
:101A0000710559F08830910540F424912093F1003C
:101A10003196615071090196F2CF21E0089709F0E3
:101A200020E08091E8008E778093E800CBCF2111F1
:101A3000CCCF0AC08091DD01882361F0853061F050
:101A40008091E80083FD0AC08091E80082FFF2CF18
:101A500080E0089582E0089583E0089581E008958C
:101A6000982F973058F59093E900981739F07091B6
:101A7000EC002091ED005091F00003C0242F762F50
:101A800050E021FF19C03091EB003E7F3093EB0016
:101A90003091ED003D7F3093ED003091EB003160EF
:101AA0003093EB007093EC002093ED005093F00026
:101AB0002091EE0027FF07C09F5FD3CF8F708093E8
:101AC000E90081E0089580E008958091DE0187FFBC
:101AD00011C08091E80082FD05C08091DD01811177
:101AE000F8CF11C08091E8008B770BC08091DD01A9
:101AF000882349F08091E80080FFF8CF8091E800CA
:101B00008E778093E80008952091E4003091E500FD
:101B100095E64091EC00842F817040FF22C08091B7
:101B2000E80080FD1CC08091DD01882391F08530A4
:101B300091F08091EB0085FD10C04091E400509140
:101B4000E5004217530729F39A01915011F784E0F9
:101B5000089582E0089583E0089581E0089580E08B
:101B600008954091E80042FFDECF08950E94240EC0
:101B70000E942C0EE0EEF0E0808181608083E8ED31
:101B8000F0E080818F77808319BCA7EDB0E08C9165
:101B90008E7F8C9380818F7E80831092DC010895EC
:101BA0000F931F93CF93DF930E94240E0E942C0E5D
:101BB000C8EDD0E088818F778883888180688883AA
:101BC00088818F7D888319BC1092DD011092D90124
:101BD0001092DB011092DA0100EE10E0F801808132
:101BE0008B7F808388818160888342E060E080E031
:101BF0000E94300DE1EEF0E080818E7F8083E2EE86
:101C0000F0E0808181608083808188608083F8013A
:101C100080818E7F8083888180618883DF91CF91EE
:101C20001F910F910895E8EDF0E080818F7E808311
:101C3000E7EDF0E080818160808384E082BF81E015
:101C40008093DC010C94D00DE8EDF0E080818E7F74
:101C500080831092E20008951092DA001092E10061
:101C600008951F920F920FB60F9211242F933F9356
:101C70004F935F936F937F938F939F93AF93BF9394
:101C8000EF93FF938091E10082FF0BC08091E2000F
:101C900082FF07C08091E1008B7F8093E1000E946A
:101CA000560A8091DA0080FF1FC08091D80080FF23
:101CB0001BC08091DA008E7F8093DA008091D9007A
:101CC00080FF0DC080E189BD82E189BD09B400FEBD
:101CD000FDCF81E08093DD010E942F0A05C019BC71
:101CE0001092DD010E94410A8091E10080FF19C03D
:101CF0008091E20080FF15C08091E2008E7F80938A
:101D0000E2008091E20080618093E2008091D8003F
:101D100080628093D80019BC85E08093DD010E9429
:101D20004C0A8091E10084FF30C08091E20084FF82
:101D30002CC080E189BD82E189BD09B400FEFDCFE0
:101D40008091D8008F7D8093D8008091E1008F7EB4
:101D50008093E1008091E2008F7E8093E200809189
:101D6000E20081608093E2008091D901882311F024
:101D700084E007C08091E30087FD02C081E001C0DC
:101D800083E08093DD010E94500A8091E10083FF8F
:101D900029C08091E20083FF25C08091E100877F08
:101DA0008093E10082E08093DD011092D90180915F
:101DB000E1008E7F8093E1008091E2008E7F80932E
:101DC000E2008091E20080618093E20042E060E006
:101DD00080E00E94300D8091F00088608093F000D8
:101DE0000E94480AFF91EF91BF91AF919F918F910F
:101DF0007F916F915F914F913F912F910F900FBE07
:101E00000F901F9018951F920F920FB60F921124EA
:101E10002F933F934F935F936F937F938F939F93F2
:101E2000AF93BF93CF93DF93EF93FF93C091E900FC
:101E3000CF708091EC00D82FD17080FDD0E8109247
:101E4000E9008091F000877F8093F00078940E94F1
:101E5000470F1092E9008091F00088608093F000B5
:101E6000CD2BCF70C093E900FF91EF91DF91CF911F
:101E7000BF91AF919F918F917F916F915F914F91A2
:101E80003F912F910F900FBE0F901F9018951F93A9
:101E9000CF93DF93CDB7DEB7AA970FB6F894DEBF26
:101EA0000FBECDBFEEEDF1E088E08E0F9091F10016
:101EB00091938E13FBCF0E94B00A8091E80083FFBC
:101EC0001FC18091DE019091DF01492F50E04A301F
:101ED000510508F015C1FA01EA5AFF4F0C94032A84
:101EE000803881F0823809F00BC18091E2018F7057
:101EF0008093E9008091EB0085FB882780F91092A0
:101F0000E90006C08091DA019091DB0191118260B5
:101F10009091E800977F9093E8008093F1001092F1
:101F2000F100C8C0282F2D7F09F0EAC0882319F0DE
:101F3000823061F0E5C08091E001813009F0E0C0BD
:101F4000933009F080E08093DB012BC08091E001A9
:101F5000811127C08091E2018F7009F4D1C0809374
:101F6000E9002091EB0020FF1CC0933021F4809108
:101F7000EB00806214C09091EB0090619093EB00B5
:101F800021E030E0A90102C0440F551F8A95E2F715
:101F90004093EA001092EA008091EB008860809301
:101FA000EB001092E9008091E800877F86C08111E4
:101FB000A7C01091E0011F778091E3008078812B0A
:101FC0008093E3008091E800877F8093E8000E947F
:101FD000650D8091E80080FFFCCF8091E300806870
:101FE0008093E300111102C082E001C083E080937E
:101FF000DD0186C08058823008F082C08091E00107
:102000009091E1018C3D53E0950779F583E08A8357
:102010008AE289834FB7F894DE01139620E03EE010
:1020200051E2E32FF0E050935700E49120FF03C00A
:10203000E295EF703F5FEF708E2F90E0EA3010F086
:10204000C79601C0C0968D939D932F5F243149F7A9
:102050004FBF8091E800877F8093E8006AE270E0DC
:10206000CE0101960E946C0C14C0AE014F5F5F4F11
:102070006091E2010E94B30BBC01892B09F440C0BE
:102080009091E800977F9093E80089819A810E945F
:10209000CF0C8091E8008B778093E80031C08038C6
:1020A00079F58091E800877F8093E8008091D901DD
:1020B0008093F1008091E8008E778093E8000E9481
:1020C000650D1EC081111CC09091E0019230C0F4DA
:1020D0008091E800877F8093E8009093D9010E9467
:1020E000650D8091D901811106C08091E30087FDC3
:1020F00002C081E001C084E08093DD010E94970A64
:102100008091E80083FF0AC08091E800877F809378
:10211000E8008091EB0080628093EB00AA960FB6F6
:10212000F894DEBF0FBECDBFDF91CF911F91089510
:1021300090936801809367010895E0916701F091A1
:102140006801309721F00190F081E02D099480E042
:102150000895EF92FF920F931F93CF93DF93E09137
:102160006701F09168013097B1F18C010280F38131
:10217000E02D09958091C70182FF2DC080FF04C02A
:1021800086E094E00E946206E80110E180E0E82E1B
:1021900084E0F82E8091C70180FF0BC088811F92D8
:1021A0008F93FF92EF920E94FB060F900F900F907B
:1021B0000F90115021961111EDCF8091C70180FF32
:1021C0000AC08EEF93E0DF91CF911F910F91FF90A6
:1021D000EF900C946206DF91CF911F910F91FF90C9
:1021E000EF900895E0916701F0916801309721F038
:1021F0000480F581E02D09940895209165013091C6
:1022000066018217930771F09093660180936501D0
:10221000E0916701F0916801309721F00680F78125
:10222000E02D099408952091630130916401821793
:10223000930771F09093640180936301E0916701CB
:10224000F0916801309721F00084F185E02D099428
:10225000089508950C9429110E94981E0E94260743
:102260000C94661FCF93C82F8091C70182FF1EC0B8
:1022700080FF04C08FE194E00E9462068091C70154
:1022800080FF0CC01F92CF938AE194E09F938F93BD
:102290000E94FB060F900F900F900F908091C70146
:1022A00080FF04C088E194E00E9462068C2FCF91E9
:1022B0000C94CF084F925F927F928F929F92AF9231
:1022C000BF92CF92DF92EF92FF920F931F93CF9323
:1022D000DF93CDB7DEB72A970FB6F894DEBF0FBEF7
:1022E000CDBF0E9449079AE6C92E91E0D92E00E0A1
:1022F00010E0AA24A394B12C702E802F0E947F0896
:102300004C01F601419051906F0148265926411425
:102310005104B1F40F5F1F4F0530110569F78FEFBE
:1023200089838A831B820E94A11E8160782F9D83EE
:102330008C8349815A816B818D810E9413123AC02E
:102340008091C70181FD0E94880820E030E075017E
:10235000022E02C0EE0CFF1C0A94E2F7C701842192
:102360009521892B09F12E837F828E209F2091E079
:10237000892809F490E098870E94A11E8160782F37
:102380009A8789874E815F8168858A850E941312AA
:10239000000F111FF801E659FE4F80819181E82658
:1023A000F926F182E08206C02F5F3F4F20313105D0
:1023B00071F6B0CF0E94D722109169010E949D1042
:1023C0001817D9F00E949D10809369012A960FB6C4
:1023D000F894DEBF0FBECDBFDF91CF911F910F915B
:1023E000FF90EF90DF90CF90BF90AF909F908F9035
:1023F0007F905F904F900C9432112A960FB6F8940C
:10240000DEBF0FBECDBFDF91CF911F910F91FF9027
:10241000EF90DF90CF90BF90AF909F908F907F9084
:102420005F904F900895CF93DF93CDB7DEB72B9792
:102430000FB6F894DEBF0FBECDBF4F8358876987B4
:102440007A878B87DE01119686E0FD0111928A95CD
:10245000E9F785E0FE01379601900D928A95E1F744
:1024600049815A816B817C818D819E810E943019C6
:102470002B960FB6F894DEBF0FBECDBFDF91CF9184
:102480000895CF93882309F4C2C0C82F823859F425
:102490000E949D1081FDBBC089E30E94B51B0E9474
:1024A000941C89E30CC0833879F40E949D1080FD50
:1024B000AEC083E50E94B51B0E94941C83E50E9478
:1024C000081CCF910C94941C843859F40E949D10E0
:1024D00082FD9DC087E40E94B51B0E94941C87E486
:1024E000EECF8CEF8C0F813A48F48C2F0E945D2741
:1024F00081118DC08C2F0E94B51BE3CF80E28C0F21
:10250000883048F4C77081E001C0880FCA95EAF7A7
:102510000E945D1CD6CF8BE58C0F833078F4C53AD2
:1025200029F0C63A31F083E890E005C081E890E0F8
:1025300002C082E890E0CF910C94FD1088E58C0FEA
:10254000833108F064C0C83A39F1C93A41F1CA3A56
:1025500049F1CB3A51F1CC3A59F1CD3A61F1C03B56
:1025600069F1CE3A71F1CF3A79F1C13B81F1C23BC9
:1025700089F1C33B91F1C43B99F1C53BA1F1C63B45
:10258000A9F1C73BB1F1C83BB9F1C93BC1F1CA3BA5
:10259000C9F180E090E038C082EE90E035C089EE6D
:1025A00090E032C08AEE90E02FC085EB90E02CC026
:1025B00086EB90E029C087EB90E026C08CEC90E0A1
:1025C00023C08DEC90E020C083E891E01DC08AE834
:1025D00091E01AC082E991E017C084E991E014C04B
:1025E00081E292E011C083E292E00EC084E292E0C8
:1025F0000BC085E292E008C086E292E005C087E267
:1026000092E002C08AE292E0CF910C941311CF9134
:102610000895882309F44BC0823859F40E949D1014
:1026200081FF45C089E30E94B51B0E94941C89E389
:102630000CC0833871F40E949D1080FF38C083E580
:102640000E94B51B0E94941C83E50E94081C0C94F8
:10265000941C843859F40E949D1082FF28C087E49E
:102660000E94B51B0E94941C87E4EFCF9CEF980F4B
:10267000913A58F390E2980F983050F4877091E0B7
:1026800001C0990F8A95EAF7892F0E94631CDFCF5A
:102690009BE5980F933020F480E090E00C94FD10BF
:1026A000885A833120F480E090E00C94131108954F
:1026B000882321F00E945D1C0C94941C08958823AB
:1026C00021F00E94631C0C94941C0895BF92CF9239
:1026D000DF92EF92FF920F931F93CF93DF9300D07F
:1026E00000D000D0CDB7DEB725E0FC01DE011196A9
:1026F00001900D922A95E1F7FC0140813181028120
:10270000258122952F7063817481672B09F4ECC2B7
:102710003F3F19F44F3F09F4E7C27C0149833A83F4
:1027200089819A812E830E94741B182FB92E0E94D2
:10273000731B0E945D1AEB2DE295EF70F0E0E05AFA
:10274000FF4F2E810C94032A8B2D807F9B2D9F7031
:10275000F92E882319F0F29480EFF822002349F033
:10276000FF2009F46EC28F2D0E946D1C0E94941CE4
:1027700068C2812F0E940913FF2009F4B5C28F2D72
:102780000E94731C26960FB6F894DEBF0FBECDBF15
:10279000DF91CF911F910F91FF90EF90DF90CF903D
:1027A000BF900C94941C8B2D807F9B2D9F7080324A
:1027B00011F4892F03C0892F8295807F112319F08E
:1027C000113011F12BC00023A9F0222389F121300F
:1027D00079F526960FB6F894DEBF0FBECDBFDF9118
:1027E000CF911F910F91FF90EF90DF90CF90BF900E
:1027F0000C947D1C222319F0213009F475C28E83BC
:102800000E94801C8E819BC1002321F0263008F09D
:102810006BC20EC0253008F067C291C10023C9F019
:10282000222331F0F701958190FF0BC29F709583B1
:1028300026960FB6F894DEBF0FBECDBFDF91CF91C5
:102840001F910F91FF90EF90DF90CF90BF900C946D
:102850005813222309F473C109C22B2D26952695FE
:10286000237030E02115310521F021303105D1F000
:102870003BC2002321F0812F9B2D937002C080E08A
:1028800090E026960FB6F894DEBF0FBECDBFDF9165
:10289000CF911F910F91FF90EF90DF90CF90BF905D
:1028A0000C94FD10002321F0812F9B2D937002C00A
:1028B00080E090E026960FB6F894DEBF0FBECDBF45
:1028C000DF91CF911F910F91FF90EF90DF90CF900C
:1028D000BF900C941311812F002319F00E945D21E9
:1028E00002C00E94C52126960FB6F894DEBF0FBE27
:1028F000CDBFDF91CF911F910F91FF90EF90DF90AF
:10290000CF90BF900C944A228B2D837009F07BC02E
:102910000111EAC1812F829586958770880F880FF3
:10292000912F9F70C92ED12CE12CF12C082E04C0C0
:10293000CC0CDD1CEE1CFF1C0A94D2F714FF12C055
:102940004FE050E060E070E004C0440F551F661F88
:10295000771F8A95D2F7CB01BA0160957095809563
:10296000909503C060E070E0CB012B2D2695269555
:102970002370422F50E042305105D9F043305105C9
:1029800069F16C297D298E299F294130510551F12A
:1029900026960FB6F894DEBF0FBECDBFDF91CF9164
:1029A0001F910F91FF90EF90DF90CF90BF900C940C
:1029B000841A6C297D298E299F2926960FB6F894B2
:1029C000DEBF0FBECDBFDF91CF911F910F91FF9062
:1029D000EF90DF90CF90BF900C94A01A0E94841AC1
:1029E000C701B60126960FB6F894DEBF0FBECDBF65
:1029F000DF91CF911F910F91FF90EF90DF90CF90DB
:102A0000BF900C94681A002319F08B2D817001C0BF
:102A10008695882309F468C1812F829586958770F1
:102A2000880F880F912F9F70C92ED12CE12CF12C8B
:102A3000082E04C0CC0CDD1CEE1CFF1C0A94D2F73F
:102A400014FF12C04FE050E060E070E004C0440F9B
:102A5000551F661F771F8A95D2F7CB01BA01609583
:102A600070958095909503C060E070E0CB012B2DB0
:102A7000269526952370422F50E042305105D9F01B
:102A80004330510569F16C297D298E299F294130F8
:102A9000510551F126960FB6F894DEBF0FBECDBF9B
:102AA000DF91CF911F910F91FF90EF90DF90CF902A
:102AB000BF900C944F1B6C297D298E299F29269647
:102AC0000FB6F894DEBF0FBECDBFDF91CF911F913F
:102AD0000F91FF90EF90DF90CF90BF900C94611B0F
:102AE0000E944F1BC701B60126960FB6F894DEBFB1
:102AF0000FBECDBFDF91CF911F910F91FF90EF904F
:102B0000DF90CF90BF900C943D1B103F49F118F41B
:102B1000103E48F491C0123F09F453C0E8F1133F4E
:102B200009F464C089C01F708B2D8F71002321F0C0
:102B30000E94D61A812F7CCE0E94F71A812F2696EA
:102B40000FB6F894DEBF0FBECDBFDF91CF911F91BE
:102B50000F91FF90EF90DF90CF90BF900C945F1398
:102B60000023B1F0253008F0BFC08B2D8F71269661
:102B70000FB6F894DEBF0FBECDBFDF91CF911F918E
:102B80000F91FF90EF90DF90CF90BF900C941C1BA3
:102B9000263008F0A9C0E9CF0023A9F08B2D8F7152
:102BA00026960FB6F894DEBF0FBECDBFDF91CF9152
:102BB0001F910F91FF90EF90DF90CF90BF900C94FA
:102BC000D61A002359F38B2D8F7126960FB6F894E1
:102BD000DEBF0FBECDBFDF91CF911F910F91FF9050
:102BE000EF90DF90CF90BF900C94F71A002399F0EC
:102BF0008B2D8F7126960FB6F894DEBF0FBECDBF1A
:102C0000DF91CF911F910F91FF90EF90DF90CF90C8
:102C1000BF900C94C11A26960FB6F894DEBF0FBE73
:102C2000CDBFDF91CF911F910F91FF90EF90DF907B
:102C3000CF90BF900C94BC1A0023A9F0222309F472
:102C4000ADCF812F26960FB6F894DEBF0FBECDBF55
:102C5000DF91CF911F910F91FF90EF90DF90CF9078
:102C6000BF900C944112222309F4ADCF812F2696F8
:102C70000FB6F894DEBF0FBECDBFDF91CF911F918D
:102C80000F91FF90EF90DF90CF90BF900C940913BD
:102C90004B2D4F70612FC7010E94F41D26960FB671
:102CA000F894DEBF0FBECDBFDF91CF911F910F9182
:102CB000FF90EF90DF90CF90BF900C94D4194B2DE4
:102CC0004F70612FC70126960FB6F894DEBF0FBE76
:102CD000CDBFDF91CF911F910F91FF90EF90DF90CB
:102CE000CF90BF900C94F71D26960FB6F894DEBFD8
:102CF0000FBECDBFDF91CF911F910F91FF90EF904D
:102D0000DF90CF90BF9008950E947A1C0E944F1CC4
:102D10000E94941C0E947C230E944A2280E090E042
:102D20000E94FD1080E090E00C9413110E946A1C38
:102D30000C9484160E94741B292F22952F7030E06A
:102D40002C3031054CF42A3031056CF42250310915
:102D50002230310588F407C02C30310549F02F307E
:102D6000310531F009C0803E48F0803F29F406C0AB
:102D700093FB882780F9089580E0089581E0089505
:102D8000CF93DF9300D000D01F92CDB7DEB70F9066
:102D90000F900F900F900F90DF91CF910895CF93E8
:102DA000DF9300D000D000D0CDB7DEB726960FB6A7
:102DB000F894DEBF0FBECDBFDF91CF9108951F9372
:102DC000CF93DF93C091740116E080917501C8170D
:102DD00099F0D0E01C9FF0011D9FF00D1124EA58DE
:102DE000FE4F4081518162817381848195810E946F
:102DF000CF162196C770E9CFDF91CF911F9108952B
:102E00004091A6015091A7016091A8017091A9017C
:102E10008091AA019091AB010C94CF168091AB01E7
:102E200082958F7009F054C08091A801882309F41D
:102E30004FC080917401A09175016091A6017091BD
:102E4000A7014091A9015091AA01B6E08A1709F49F
:102E50003FC090E041155105C1F17F3F11F46F3F34
:102E6000A1F1B89FF001B99FF00D1124EA58FE4F6F
:102E7000218172132AC02081621327C0228121116F
:102E800024C0238134812417350710F421503109DF
:102E9000241B350B283C3105C0F42091AB012F7069
:102EA00020612093AB0126E0289FF001299FF00DBF
:102EB0001124E558FE4F80818F708061808386EAFF
:102EC00091E00E9466130C94DF1601968770BECFC6
:102ED0000895CF92DF92EF92FF920F931F93CF93BB
:102EE000DF93CDB7DEB762970FB6F894DEBF0FBEA3
:102EF000CDBF8C0185E0F801DE011D9601900D9299
:102F00008A95E1F7D8014C9111965C911197129630
:102F10006C9112971396CD90DC9014973091A60186
:102F20007091A7018091A9019091AA01009709F4DD
:102F30006BC17F3F19F43F3F09F466C1E090A801DF
:102F4000EE2009F4C0C02091AB01C816D90628F0C4
:102F5000F601E81BF90BCF0104C0809590958C0D0C
:102F60009D1DFF24F394883C910578F0F12C207F7F
:102F700009F0C6C07C2DD98AC88A89890E94C016EA
:102F800086EA91E00E946613B1C0822F807F09F02B
:102F900046C0751314C0341312C0611110C02F70D5
:102FA00020612093AB010E94001786EA91E00E9405
:102FB00066138091AB01D80115968C932EC0CD2855
:102FC00019F15F3F11F44F3FF9F0F62E61111CC06B
:102FD000809174012091750136E0821709F45AC07E
:102FE00090E0389FF001399FF00D1124EA58FE4F10
:102FF0007181571306C07081471303C0728171112C
:1030000003C001968770E9CFF62E662309F418C134
:103010008091AB0181608093AB01F12C11C17513DC
:1030200008C0341306C0611104C08091AB01D801FF
:10303000C3C04D875E878D859E856A8B0E949A16D8
:103040006A898823E1F16623D1F12091AB01822FB7
:1030500082958F7090E0029774F08091A601909114
:10306000A70198878F831986DB86CA862C87CE01B5
:1030700007960E94661386E0F801A6EAB1E0019087
:103080000D928A95E1F70E940E170E940017FF2407
:10309000F394D6C04D875E878D859E850E94741BF4
:1030A000292F22952F7030E0223031050CF0BCC062
:1030B0009F7009F0B6C0805E883008F4C1C0C801B6
:1030C0000E946613E4CFC816D90608F453C0F6016F
:1030D000E81BF90BCF01883C910508F450C0F12C96
:1030E0007C2DD98AC88A89890E94C016E6EAF1E057
:1030F00086E0DF011D928A95E9F70E940017A0C0C3
:10310000751314C0341312C0611110C08091AB014B
:10311000F8018583C8010E94661386E0E6EAF1E0C3
:10312000DF011D928A95E9F7FE2C8AC04D875E87E4
:103130008D859E856A8B0E949A166A89882309F478
:10314000BECF662309F4BBCF2091AB01822F8295BD
:103150008F7090E002970CF48ECF8091A601909131
:10316000A7019A8389831B82DD82CC822E83CE01C4
:1031700001967FCF809590958C0D9D1DACCFF62E3E
:10318000662309F49CCF75132EC034132CC02091F4
:10319000AB0120FD1FC0822F82958F70D9F0D8011E
:1031A00015962C9315978F3049F08F5F982F929535
:1031B000907F822F8F70892B15968C93C8010E9467
:1031C000661386E0F801A6EAB1E001900D928A95B7
:1031D000E1F793CF86E0F801A6EAB1E001900D9205
:1031E0008A95E1F72DC04D875E878D859E850E946B
:1031F0009A16811140CF8091AB0181608093AB0121
:10320000C8010E9466131CC0662309F458CF4D877D
:103210005E878D859E850E949A16882309F44FCF7C
:103220002ACF811148CF0CC0243031050CF047CF94
:103230009F7009F440CFF8019581907F09F03BCF52
:103240008F2D62960FB6F894DEBF0FBECDBFDF9113
:10325000CF911F910F91FF90EF90DF90CF90089545
:103260001F93CF93DF93CDB7DEB72C970FB6F894AB
:10327000DEBF0FBECDBF4F83588769877A878B87A4
:103280009C87CE0107960E946917882369F08F8179
:1032900098852A853B85232BF1F19F3F09F063C078
:1032A0008F3F09F060C037C086E0FE013796DE012F
:1032B000119601900D928A95E1F76F817885EA85E4
:1032C000FB85309741F17F3F11F46F3F21F1209151
:1032D000750130E0C901019687709927409174010A
:1032E00050E08417950709F447C069837A83FD830A
:1032F000EC8396E0929FD001939FB00D1124AA58C1
:10330000BE4FFE01319601900D929A95E1F78093A0
:1033100075010E94DF1616E080917401909175018D
:103320008917C1F1189FC00111248A589E4F0E942D
:103330006917882379F1E09174011E9FF00111242F
:10334000EA58FE4F40815181628173818481958169
:103350000E94CF168091740190E0019687709927A2
:1033600080937401D9CF4F81588569857A858B8583
:103370009C850E94CF16CFCF0E94961610927501A1
:1033800010927401E6EAF1E086E0DF011D928A9571
:10339000E9F7C1CF2C960FB6F894DEBF0FBECDBFB4
:1033A000DF91CF911F910895EF92FF920F931F939A
:1033B000CF93DF938C01892B09F46CC0F12CEE24A0
:1033C000E394E8012196F8018491843740F4843035
:1033D00008F051C0813081F0823019F15BC085372F
:1033E00009F444C0A8F19CE7980F903708F052C048
:1033F0008F770E94091341C00E5F1F4FFE01C491D9
:1034000080E28C0F883048F4C7708E2D01C0880F81
:10341000CA95EAF70E946D1C14C08C2F0E944112BD
:103420002DC00E5F1F4FFE01C49180E28C0F8830CB
:1034300058F4C7708E2D01C0880FCA95EAF70E9414
:10344000731C0E94941C1AC08C2F0E94091316C072
:103450000E5F1F4FFE01C491CC2381F08FE99FE0E6
:103460000197F1F700C00000C150F6CF0E5F1F4F6B
:10347000FE01F49003C00E9441128E018F2D88231B
:1034800009F49FCFEFE9FFE03197F1F700C00000AA
:103490008150F5CFDF91CF911F910F91FF90EF9069
:1034A00008956093AC017093AD018093AE01909349
:1034B000AF010E94E5080C94841608956093B00152
:1034C0007093B1018093B2019093B3010C94841670
:1034D0000F931F930091B0011091B1012091B2019F
:1034E0003091B301DC01CB01802B912BA22BB32BAC
:1034F0008093B0019093B101A093B201B093B30156
:103500001F910F910C9484160F931F930091B0019B
:103510001091B1012091B2013091B301DC01CB01D6
:1035200080239123A223B3238093B0019093B10110
:10353000A093B201B093B3011F910F910C94841624
:103540000F931F930091B0011091B1012091B2012E
:103550003091B301DC01CB0180279127A227B3274B
:103560008093B0019093B101A093B201B093B301E5
:103570001F910F910C94841660E070E0CB010C94C5
:10358000511A0F931F9341E050E060E070E08A0110
:103590009B0104C0000F111F221F331F8A95D2F711
:1035A000C901B8011F910F910C94511A0F931F93E9
:1035B00041E050E060E070E004C0440F551F661F1A
:1035C000771F8A95D2F78091AC019091AD01A091BF
:1035D000AE01B091AF018A019B01082B192B2A2B58
:1035E0003B2BC901B8011F910F910C94511A0F93F5
:1035F0001F9341E050E060E070E004C0440F551FAD
:10360000661F771F8A95D2F7409550956095709503
:103610008091AC019091AD01A091AE01B091AF014C
:103620008A019B01082319232A233B23C901B801DE
:103630001F910F910C94511A0F931F9341E050E08A
:1036400060E070E004C0440F551F661F771F8A9525
:10365000D2F78091AC019091AD01A091AE01B091F3
:10366000AF018A019B01082719272A273B27C90197
:10367000B8011F910F910C94511A0F931F93009151
:10368000AC011091AD012091AE013091AF01602BE2
:10369000712B822B932B1F910F910C94511A0F9326
:1036A0001F930091AC011091AD012091AE013091BA
:1036B000AF0160237123822393231F910F910C94F8
:1036C000511A0F931F930091AC011091AD012091FD
:1036D000AE013091AF0160277127822793271F9198
:1036E0000F910C94511A0895CF92DF92EF92FF92AE
:1036F0000F931F93CF93DF938C01C090B001D090B4
:10370000B101E090B201F090B3014091AC01509151
:10371000AD016091AE017091AF01C42AD52AE62AAD
:10372000F72ACFE1D0E0D701C6010C2E04C0B69530
:10373000A795979587950A94D2F780FF07C0B8019F
:103740008C2F0E94811D8130910531F4219758F70B
:10375000B80180E00E94811DDF91CF911F910F91F0
:10376000FF90EF90DF90CF90089590910B019923F7
:1037700021F090910C01911109C020910D0130911F
:103780000E01F90132969FEF40E030C0982F9695D8
:10379000969596959F30A0F4E0910D01F0910E0161
:1037A000E90FF11D877021E030E0A90102C0440F4C
:1037B000551F8A95E2F7CA019181892B818308956B
:1037C0009091C70190FF23C01F928F9380E594E0F2
:1037D0009F938F930E94FB060F900F900F900F9076
:1037E00008959F3F39F04F5F4E3041F0519158138B
:1037F000F8CF0DC05111F7CF942FF5CF9F3F39F07F
:10380000F901E90FF11D97FDFA9582830895089556
:1038100090910B01992321F090910C01911109C015
:1038200020910D0130910E01F9013296205F3F4F3A
:1038300030C0982F9695969596959F30A8F4E09174
:103840000D01F0910E01E90FF11D877021E030E0CC
:10385000A90102C0440F551F8A95E2F7CA0180955D
:1038600091818923818308959091C70190FF16C0AB
:103870001F928F9382E394E09F938F930E94FB06A5
:103880000F900F900F900F9008953196E217F30765
:1038900029F090819813F9CF1082F7CF089581E035
:1038A00090E0E0910D01F0910E01E80FF91F1082F8
:1038B000019680319105A9F708959091C601892B51
:1038C0008093C601089580959091C60189238093C5
:1038D000C60108951092C60108959091C501892BE3
:1038E0008093C501089580959091C50189238093A7
:1038F000C50108951092C50108958093B4010895FB
:103900001092B401089580910D0190910E01FC0177
:1039100031969C01205F3F4F80E0919191118F5F24
:10392000E217F307D1F70895E0910D01F0910E0130
:103930008091C6018083E0910D01F0910E0190818C
:103940008091C501892B80838091B401882361F027
:10395000E0910D01F0910E019081892B80830E94EE
:10396000831C81111092B40180910D0190910E0180
:103970000C94A910CF93DF938D3B50F4883A10F547
:10398000853AB8F4843090F4813009F46FC00BC0EC
:10399000883E30F4803E50F48F3B09F459C003C098
:1039A000803F08F051C0C0E0D0E0A7C0C82FD0E0F1
:1039B000A4C0853A09F45DC0863A09F45DC0C3E845
:1039C000D0E49BC0883A09F45AC0893A09F45AC035
:1039D0008A3A09F45AC08B3A09F45AC08C3A09F46D
:1039E0005AC08B3B09F45AC08C3B09F45AC08D3A3B
:1039F00009F45AC0803B09F45AC08E3A09F45AC0FF
:103A00008F3A09F45AC0813B09F45AC0823B09F449
:103A10005AC0833B09F45AC0843B09F45AC0853B21
:103A200009F45AC0863B09F45AC0873B09F45AC0CE
:103A3000883B09F45AC0893B09F45AC08A3B09F40F
:103A40005AC0C0E0D4E459C0C82FD0E0D06555C0FA
:103A50000E9496162FEF80E792E021508040904020
:103A6000E1F700C000000E94FC1E47C0C1E0D0E0AA
:103A700044C0C1E8D0E441C0C2E8D0E43EC0C2EED8
:103A8000D4E43BC0C9EED4E438C0CAEED4E435C0B7
:103A9000C5EBD4E432C0C6EBD4E42FC0C3EBD4E40E
:103AA0002CC0C4EBD4E429C0C7EBD4E426C0CCECD2
:103AB000D4E423C0CDECD4E420C0C3E8D5E41DC0D9
:103AC000CAE8D5E41AC0C2E9D5E417C0C4E9D5E410
:103AD00014C0C1E2D6E411C0C3E2D6E40EC0C4E211
:103AE000D6E40BC0C5E2D6E408C0C6E2D6E405C001
:103AF000C7E2D6E402C0CAE2D6E4CE01DF91CF919C
:103B000008950E940407803EA8F4803C00F58133AC
:103B100009F45CC038F4893209F452C08A3209F4DD
:103B20005BC05FC08933B1F08238A1F0853309F4FE
:103B300041C057C0833E41F128F4803E99F0823E57
:103B4000B9F04FC0863E31F1873E71F14AC00E9404
:103B5000160708959091D80190FD02C091FF41C0D1
:103B600080EE3FC08091D80180FFFACF89E339C051
:103B70008091D80182FF0CC08091D80184FF02C0DF
:103B800080E02FC083EE2DC08091D80182FFF4CF5A
:103B900082EE27C08091D80183FF0AC08091D801AE
:103BA00084FDEECF87EE1DC08091D80183FFF6CF54
:103BB00086EE17C08091D80185FF06C089E211C04A
:103BC0008091D80185FFFACF85E30BC08091D801A1
:103BD00086FF06C08AE205C08091D80186FFFACF31
:103BE00081E30E94BA1C089580E090E00895089552
:103BF000909339018093380108958295982F9C7C89
:103C0000392F36953695282F237344E0249FC00121
:103C10001124932F982B292F2A7A2695892F857581
:103C2000880F822B08951F93CF93DF931F92CDB7F8
:103C3000DEB799830E94FD1D182F9981892F0E945C
:103C4000FD1D212F30E0322F2227A901482BCA0168
:103C50000F90DF91CF911F9108958091DD01843005
:103C600021F11092C80120E488E190E00FB6F894A9
:103C7000A895809360000FBE2093600083B7817F7A
:103C8000846083BF83B7816083BF7894889583B74E
:103C90008E7F83BF0FB6F894A895809160008861ED
:103CA00080936000109260000FBE089508950895FB
:103CB000CF930E94561E0E9449070E94571EC0E0E3
:103CC0008C2F0E947F08892B29F4CF5FC530C1F764
:103CD00080E001C081E0CF9108950C9496161F9268
:103CE0000F920FB60F9211248F939F93AF93BF93B0
:103CF0008091C801811113C08091C9019091CA01BE
:103D0000A091CB01B091CC014196A11DB11D809332
:103D1000C9019093CA01A093CB01B093CC01BF918C
:103D2000AF919F918F910F900FBE0F901F9018959C
:103D300082E084BD93E095BD9AEF97BD80936E00BD
:103D400008952FB7F8948091C9019091CA01A0916C
:103D5000CB01B091CC012FBF0895CF92DF92EF92AB
:103D6000FF920F931F932FB7F8944091C901509180
:103D7000CA016091CB017091CC012FBF6A017B0118
:103D8000EE24FF248C0120E030E0C016D106E206CC
:103D9000F30610F4415051099A01281B390BC9014F
:103DA0001F910F91FF90EF90DF90CF9008951F9299
:103DB0000F920FB60F9211248F939F93AF93BF93DF
:103DC0008091C9019091CA01A091CB01B091CC0121
:103DD0000196A11DB11D8093C9019093CA01A093C2
:103DE000CB01B093CC01BF91AF919F918F910F9078
:103DF0000FBE0F901F9018950E94B60DF8942FEFEC
:103E000087EA91E6215080409040E1F700C0000031
:103E100087E090EBDC018093E6019093E701A093AB
:103E2000E801B093E9019CE088E10FB6F894A89509
:103E3000809360000FBE90936000FFCFCF92DF921F
:103E4000EF92FF920F931F93CF93DF93D82FC0E091
:103E5000EE24E394F12C8C2F0E947F086C0100E08B
:103E600010E09701002E02C0220F331F0A94E2F7E0
:103E70002C213D21232B31F40F5F1F4F0031110501
:103E800081F709C0602F7C2F80E00E940407D813BF
:103E9000F3CF81E004C0CF5FC530E9F680E0DF9169
:103EA000CF911F910F91FF90EF90DF90CF900895E9
:103EB000CF93C82F8CE20E941E1F882321F08C2FE5
:103EC000CF910C941E1F80E0CF910895CF930E9454
:103ED000B520811102C00E949B2085E794E00E94DA
:103EE0006206C5E6C15049F00E9449078FE39CE98C
:103EF0000197F1F700C00000F5CF8EE694E00E9434
:103F0000620689E20E94581F811113C18AE20E9451
:103F1000581F81110E949B2085E00E94581F81112B
:103F20000E94FC1E0E94C0208093C70187E00E946F
:103F3000581F8823A9F18BE10E94581F882351F054
:103F40008091C70181FB222720F991E0922790FB05
:103F500081F90EC08EE00E94581F882361F0809185
:103F6000C70182FB222720F991E0922790FB82F97A
:103F70008093C70115C080E10E94581F9091C7012E
:103F8000882341F093FB222720F981E0822780FBE0
:103F900093F904C0892F809580FB90F99093C70115
:103FA0008091C7010E94C4200E94D2208093D80132
:103FB00080EE0E94581F882341F08091D801982FED
:103FC000909590FB80F98093D80189E30E94581F57
:103FD000882359F08091D80181FB222720F991E0B4
:103FE000922790FB81F98093D80182EE0E94581F9E
:103FF000882359F08091D80182FB222720F991E093
:10400000922790FB82F98093D80186EE0E94581F78
:10401000882359F08091D80183FB222720F991E071
:10402000922790FB83F98093D80183EE0E94581F5A
:10403000882359F08091D80184FB222720F991E050
:10404000922790FB84F98093D80185E30E94581F42
:10405000882359F08091D80185FB222720F991E02F
:10406000922790FB85F98093D80181E30E94581F25
:10407000882359F08091D80186FB222720F991E00E
:10408000922790FB86F98093D80181E10E94581F06
:10409000882359F08091D80187FB222720F991E0ED
:1040A000922790FB87F98093D8018091D8010E94D4
:1040B000D6208091D80187FB882780F980930C0156
:1040C00087E20E94581FC82F8EE10E94581F81115D
:1040D000C2608FE10E94581F8111C46080E20E947B
:1040E000581F8111C86081E20E94581F8111C06170
:1040F00082E20E94581F8111C06283E20E94581F11
:104100008111C06484E20E94581F882311F0C068A6
:1041100002C0CC2329F08C2F0E94CD206C2F03C02D
:104120000E94C920682F70E080E090E0CF910C944D
:104130005E1ACF9108956DEE7EEF80E090E00E94D0
:10414000392A60E082E090E00E942B2A60E083E060
:1041500090E00E942B2A60E084E090E00E942B2AED
:1041600060E085E090E00C942B2A80E090E00E94D3
:10417000252A21E08D3E9E4F09F020E0822F0895F0
:1041800082E090E00C941D2A682F82E090E00C946D
:104190002B2A83E090E00C941D2A682F83E090E0A6
:1041A0000C942B2A84E090E00C941D2A682F84E064
:1041B00090E00C942B2A8091CF0180FF0BC060917E
:1041C000120185E0689FB00111247595679575957A
:1041D00067952BC081FF09C06091120185E0689F3F
:1041E000B00111247595679520C082FF07C06091CA
:1041F000120185E0689FB001112417C09091D00191
:104200009923D1F060911101961788F7209112013E
:1042100085E0289F90011124929FA001939F500D4B
:10422000112470E0CA010E94EF296038710540F442
:104230006115710539F002C065E070E0862F0895C0
:104240008FE7089581E008958091CF0180FF08C035
:104250006091100170E0759567957595679521C01F
:1042600081FF06C06091100170E07595679519C0D7
:1042700082FF04C06091100170E010C09091D001E5
:104280009923C1F060910F019617A0F7809110015A
:10429000899FC001112470E00E94EF2960387105E8
:1042A00028F46115710521F0862F08958FE7089590
:1042B00081E0089561E070E0F4CF803F21F40E9436
:1042C000DB20819504C0813F29F40E94DB2080938C
:1042D000D3010895823F21F40E94DB20819504C020
:1042E000833F29F40E94DB208093D2010895893F07
:1042F00019F40E94242105C08A3F31F40E94242130
:1043000081958093D40108958B3F21F40E9424214C
:10431000819504C08C3F29F40E9424218093D5010B
:104320000895843F21F48091D101816017C0853FB9
:1043300021F48091D101826011C0863F21F48091E7
:10434000D10184600BC0873F21F48091D101886046
:1043500005C0883F31F48091D10180618093D10103
:1043600008958D3F21F48091CF0181600BC08E3F75
:1043700021F48091CF01826005C08F3F29F48091A4
:10438000CF0184608093CF010895803F39F48091FC
:10439000D30187FF6CC01092D30169C0813F29F41B
:1043A0008091D3011816BCF362C09091D201823F74
:1043B00029F497FF5CC01092D20159C0833F19F4D1
:1043C0001916CCF354C0893F41F48091D4011816DA
:1043D0000CF04DC01092D4014AC08A3F29F480915C
:1043E000D40187FF44C0F6CF8B3F39F48091D501CB
:1043F00087FF3DC01092D5013AC08C3F29F48091CF
:10440000D5011816BCF333C0843F21F48091D1014B
:104410008E7F17C0853F21F48091D1018D7F11C01F
:10442000863F21F48091D1018B7F0BC0873F21F41F
:104430008091D101877F05C0883F31F48091D101FF
:104440008F7E8093D10113C08D3F21F48091CF01E5
:104450008E7F0BC08E3F21F48091CF018D7F05C0F0
:104460008F3F29F48091CF018B7F8093CF01809182
:10447000D20181110EC08091D30181110AC08091B7
:10448000D401811106C08091D501811102C0109222
:10449000D00108958091C70183FF7EC081EB94E035
:1044A0000E9462068091D1011F928F938CEA94E062
:1044B0009F938F930E94FB068AEA94E00E94620613
:1044C0008091D201282F082E000C330B3F938F933D
:1044D00087EA94E09F938F930E94FB0685EA94E01D
:1044E0000E9462068091D301282F082E000C330B06
:1044F0003F938F9382EA94E09F938F930E94FB06F1
:1045000080EA94E00E9462068091D401282F082E50
:10451000000C330B3F938F938DE994E09F938F931F
:104520000E94FB068BE994E00E9462068091D5010F
:10453000282F082E000C330B3F938F9388E994E0CB
:104540009F938F930E94FB0685E994E00E94620688
:104550008091D0011F928F9382E994E09F938F9373
:104560000E94FB0680E994E00E9462068091CF01E0
:104570001F928F938DE894E09F938F930E94FB0688
:104580008AE894E00E9462068DB79EB74C960FB6FB
:10459000F8949EBF0FBE8DBF81ED91E00E94F21096
:1045A0000E94A11E9093CE018093CD0108951F9388
:1045B000CF93DF938091CD019091CE010E94AD1EEB
:1045C000AC019091D001992321F02091130130E0AA
:1045D00006C0209114018AE0289F900111244217FF
:1045E000530708F485C08091D201C091D301D091C6
:1045F000D4011091D501811107C0C11175C0D1112D
:1046000073C0111171C074C09F3F19F09F5F9093E8
:10461000D001181624F40E94DB208093D2018091EF
:10462000D20187FF05C00E94DB2081958093D201D3
:104630001C1624F40E94DB208093D3018091D301C7
:1046400087FF05C00E94DB2081958093D301609194
:10465000D201662331F1C091D301CC2311F1062E92
:10466000000C770B880B990B0E94EA2823E333E3B5
:1046700043E35FE30E944E290E94B2286093D20177
:104680006C2FCC0F770B880B990B0E94EA2823E341
:1046900033E343E35FE30E944E290E94B228609314
:1046A000D3011D1624F40E9424218093D40180910B
:1046B000D40187FF05C00E94242181958093D401F5
:1046C000111624F40E9424218093D5018091D501F4
:1046D00087FF05C00E94242181958093D501DF9139
:1046E000CF911F910C944A229F3F09F08FCF97CF13
:1046F000DF91CF911F910895E1EDF1E085E0DF01B9
:104700001D928A95E9F71092D0011092CF01089579
:1047100084ED96E00E9462061F9281E08F931F92C3
:1047200085E08F9386E896E09F938F930E94FB0627
:104730000F900F900F900F900F900F90089583306F
:10474000E9F128F4813061F0823009F10895853073
:1047500009F462C008F449C0863009F474C00895B1
:1047600080911401262F30E0280F311D2F3F310595
:1047700024F4680F6093140103C08FEF8093140139
:10478000809114011F928F938FEB95E072C08091FE
:104790001301262F30E0280F311D2F3F310524F45F
:1047A000680F6093130103C08FEF80931301809112
:1047B00013011F928F938DEA95E05BC080911201E7
:1047C000262F30E0280F311D2F3F310524F4680FCC
:1047D0006093120103C08FEF809312018091120148
:1047E0001F928F938AE995E044C080911101262F92
:1047F00030E0280F311D2F3F310524F4680F6093FE
:10480000110103C08FEF80931101809111011F925C
:104810008F9385E895E02DC080911001262F30E020
:10482000280F311D2F3F310524F4680F60931001CC
:1048300003C08FEF80931001809110011F928F931E
:104840008CE695E016C080910F01262F30E0280FEE
:10485000311D2F3F310524F4680F60930F0103C011
:104860008FEF80930F0180910F011F928F9381E54D
:1048700095E09F938F930E94FB060F900F900F90EF
:104880000F900895833081F128F4813059F08230FF
:10489000D1F00895853009F449C0B8F1863009F4A3
:1048A00056C0089580911401681720F4861B8093E8
:1048B000140102C010921401809114011F928F9371
:1048C00082E495E054C080911301681720F4861BA0
:1048D0008093130102C010921301809113011F9263
:1048E0008F9380E395E043C080911201681720F414
:1048F000861B8093120102C0109212018091120156
:104900001F928F938DE195E032C08091110168175D
:1049100020F4861B8093110102C010921101809136
:1049200011011F928F9388E095E021C080911001C2
:10493000681720F4861B8093100102C010921001AA
:10494000809110011F928F938FEE94E010C08091A0
:104950000F01681720F4861B80930F0102C010928C
:104960000F0180910F011F928F9384ED94E09F932C
:104970008F930E94FB060F900F900F900F90089559
:10498000CF93C82F1F928F9389ED97E09F938F93BA
:104990000E94FB0681E090E0A0E0B0E0BC01CD0108
:1049A00004C0660F771F881F991FCA95D2F70E940F
:1049B0005E1A0F900F900F900F90CF910C94961657
:1049C000CF938B3109F4CBC108F049C08E3009F484
:1049D000DAC100F5873009F4A9C1A8F4863009F0DE
:1049E00060C28091C701817F8E7F8093C7018EED69
:1049F00097E00E9462068BE09CE00E94620681E0E4
:104A00008093D70191C1883009F45BC08B3009F4E1
:104A100087C147C2813109F42CC220F4803109F4E6
:104A2000C6C13FC2863109F4DDC1893109F039C2FE
:104A30008FE79BE00E9462068BE49BE00E94620687
:104A400087E19BE00E94620680EF9AE00E94620686
:104A50008BEA9AE00E9462068DE79AE063C1853393
:104A600009F419C268F4873209F415C228F48E31AA
:104A700008F417C28D5112C2893209F40CC211C256
:104A8000833438F48A3308F008C2883309F448C103
:104A900008C2833409F4FFC1883409F002C20E94BD
:104AA00096168AEF9BE00E9462069FEF23ED80E35B
:104AB000915020408040E1F700C000000E94FC1EA1
:104AC00033C18FE09CE00E9462068DED99E00E9468
:104AD00062060E94C9201F928F938AED99E09F93EE
:104AE0008F930E94FB0688ED99E00E9462060E9467
:104AF000C020C82F85EC99E00E9462061F92CF93D8
:104B000080EC99E09F938F930E94FB068EEB99E0D7
:104B10000E94620684EB99E00E9462068C2F8170ED
:104B20001F928F9381EB99E09F938F930E94FB06D6
:104B30008FEA99E00E94620685EA99E00E94620687
:104B4000C1FB882780F91F928F9382EA99E09F9397
:104B50008F930E94FB0680EA99E00E94620684E936
:104B600099E00E946206C2FB882780F91F928F930A
:104B700081E999E09F938F930E94FB068FE899E06B
:104B80000E94620686E899E00E946206C3FBCC2779
:104B9000C0F91F92CF9383E899E09F938F930E946F
:104BA000FB0681E899E00E9462060E94D220C82F8D
:104BB0008DE699E00E9462061F92CF9388E699E005
:104BC0009F938F930E94FB0686E699E00E946206FF
:104BD0008DE499E00E9462068C2F81701F928F9362
:104BE0008AE499E09F938F930E94FB068DB79EB74E
:104BF00080960FB6F8949EBF0FBE8DBF88E499E0F3
:104C00000E94620681E399E00E946206C1FB882748
:104C100080F91F928F938EE299E09F938F930E9469
:104C2000FB068CE299E00E9462068AE199E00E940C
:104C30006206C2FB882780F91F928F9387E199E073
:104C40009F938F930E94FB0685E199E00E94620684
:104C500083E099E00E946206C3FB882780F91F92D7
:104C60008F9380E099E09F938F930E94FB068EEFD5
:104C700098E00E94620684EF98E00E946206C4FBFE
:104C8000882780F91F928F9381EF98E09F938F93ED
:104C90000E94FB068FEE98E00E9462068DED98E080
:104CA0000E946206C5FB882780F91F928F938AEDC8
:104CB00098E09F938F930E94FB0688ED98E00E94F6
:104CC00062068CEB98E00E946206C6FB882780F99A
:104CD0001F928F9389EB98E09F938F930E94FB061E
:104CE00087EB98E00E9462068FEA98E00E946206D5
:104CF000C7FBCC27C0F91F92CF938CEA98E09F9313
:104D00008F930E94FB068AEA98E00E9462068DB7A4
:104D10009EB74C960FB6F8949EBF0FBE8DBF04C0D1
:104D200085E098E00E946206C1E0C0C08091C701A2
:104D3000C82FC17080FF09C08DEE9BE00E94620603
:104D40008091C701817F8E7F47C081EE9BE00E94EA
:104D500062068091C70181608093C701E5CF909181
:104D6000C70191FBCC27C0F981E0C827892FC0FB80
:104D700081F98093C701CC2319F084ED9BE027C013
:104D800086EC9BE0CFCF9091C70192FBCC27C0F976
:104D900081E0C827892FC0FB82F98093C701CC230B
:104DA00019F087EB9BE013C087EA9BE0BBCF9091A3
:104DB000C70193FBCC27C0F981E0C827892FC0FB2E
:104DC00083F98093C701CC2351F08BE99BE00E94CB
:104DD00062068091C70181608093C70167C08EE839
:104DE0009BE0A0CF8FE69AE00E9462060E949D1091
:104DF0001F928F9385E59AE09F938F930E94FB0605
:104E000080910B011F928F938EE39AE09F938F9373
:104E10000E94FB06809162011F928F938BE29AE0C1
:104E20009F938F930E94FB0680910C011F928F939A
:104E300088E19AE09F938F930E94FB068091C901BD
:104E40009091CA01A091CB01B091CC01BF93AF93D7
:104E50009F938F9384E09AE09F938F930E94FB0629
:104E60008DB79EB746960FB6F8949EBF0FBE8DBF06
:104E70005BCF0E949616C0910C0181E0C827C093B9
:104E80000C01CC2329F08AEF99E00E9462060EC043
:104E90008FEE99E047CF80E001C089530E94C02483
:104EA00043CF8DEE99E00E946206C0E08C2FCF9137
:104EB000089580E0089580E00895CF93C82F8091F1
:104EC000D701813071F020F0823009F44BC042C12B
:104ED000E0910D01F0910E018081823209F03CC118
:104EE00007C0E0910D01F0910E018081823261F4E2
:104EF0008C2F0E945927811104C08C2F0E94E0241E
:104F00002FC081E090E02CC08C2F0E945B27811184
:104F100026C0C431E1F070F4CB3081F0C031D1F45F
:104F20000E94882381ED97E00E94620682E08093D0
:104F3000D70115C0C93259F0C83361F48EED97E03E
:104F40000E94620685ED97E00E94620608C01092FA
:104F5000D70104C18FEC97E00E946206FFC081E098
:104F60008170FEC0C43228F5CE3108F0C1C0CB300C
:104F7000A1F1D0F4C73009F0D3C08EE180931401C1
:104F800082E3809313018AE08093120184E180938D
:104F9000110188E08093100188E280930F0185E77A
:104FA00096E00E946206BFC0C33149F1C431C1F02E
:104FB000B7C0CB3409F4A9C028F4C93289F0C8338A
:104FC00061F0AEC0C13509F49EC0C23509F499C084
:104FD000CE3409F0A5C06AE09EC00E948823A3C019
:104FE0008091D601882319F01092D6019CC082E8E6
:104FF00096E00E94620681E08093D701B1C08CE503
:1050000096E00E9462068AE496E00E946206809121
:1050100014011F928F9387E496E09F938F930E94D1
:10502000FB0685E496E00E94620683E396E00E9418
:105030006206809113011F928F9380E396E09F9305
:105040008F930E94FB068EE296E00E9462068FE13B
:1050500096E00E946206809112011F928F938CE16C
:1050600096E09F938F930E94FB068AE196E00E9450
:10507000620689E096E00E946206809111011F920B
:105080008F9386E096E09F938F930E94FB0684E0C7
:1050900096E00E9462068FEE95E00E946206809183
:1050A00010011F928F938CEE95E09F938F930E9437
:1050B000FB068AEE95E00E94620683ED95E00E9471
:1050C000620680910F011F928F9380ED95E09F9370
:1050D0008F930E94FB068EEC95E00E9462068DB7CE
:1050E0009EB748960FB6F8949EBF0FBE8DBF1BC0EB
:1050F000CE51EC2FF0E0E25DFE4F80818093D6012F
:1051000012C061E003C061E006C06AE08091D60190
:105110000E949F2308C08091D6010E94422403C0B0
:1051200083E796E013C08091D601882369F01F922F
:105130008F938DE696E09F938F930E94FB060F90CE
:105140000F900F900F9004C08AE696E00E946206CE
:1051500081E006C01092D70180E002C080E000CF5D
:10516000CF9108950E94B9286894B1110C944829F0
:1051700008950E942D2988F09F5798F0B92F9927FC
:10518000B751B0F0E1F0660F771F881F991F1AF032
:10519000BA95C9F714C0B13091F00E944729B1E027
:1051A00008950C944729672F782F8827B85F39F026
:1051B000B93FCCF3869577956795B395D9F73EF4CB
:1051C00090958095709561957F4F8F4F9F4F089573
:1051D000E89409C097FB3EF4909580957095619591
:1051E0007F4F8F4F9F4F9923A9F0F92F96E9BB2747
:1051F0009395F695879577956795B795F111F8CFC3
:10520000FAF4BB0F11F460FF1BC06F5F7F4F8F4F2D
:105210009F4F16C0882311F096E911C0772321F023
:105220009EE8872F762F05C0662371F096E8862FBB
:1052300070E060E02AF09A95660F771F881FDAF712
:10524000880F9695879597F9089557FD9058440FC4
:10525000551F59F05F3F71F04795880F97FB991FD5
:1052600061F09F3F79F08795089512161306140692
:10527000551FF2CF4695F1DF08C01616170618061F
:10528000991FF1CF86957105610508940895E894FA
:10529000BB2766277727CB0197F908950E946129DC
:1052A0000C94D2290E94C42938F00E94CB2920F006
:1052B000952311F00C94BB290C94C12911240C9452
:1052C00048290E94252970F3959FC1F3950F50E05E
:1052D000551F629FF001729FBB27F00DB11D639FA8
:1052E000AA27F00DB11DAA1F649F6627B00DA11D4E
:1052F000661F829F2227B00DA11D621F739FB00DF4
:10530000A11D621F839FA00D611D221F749F332763
:10531000A00D611D231F849F600D211D822F762FFC
:105320006A2F11249F5750409AF0F1F088234AF0D9
:10533000EE0FFF1FBB1F661F771F881F9150504045
:10534000A9F79E3F510580F00C94BB290C94482985
:105350005F3FE4F3983ED4F3869577956795B795CC
:10536000F795E7959F5FC1F7FE2B880F911D9695E6
:10537000879597F9089597F99F6780E870E060E056
:1053800008959FEF80EC089500240A9416161706DE
:1053900018060906089500240A9412161306140626
:1053A00005060895092E0394000C11F4882352F089
:1053B000BB0F40F4BF2B11F460FF04C06F5F7F4F41
:1053C0008F4F9F4F0895991B79E004C0991F96173E
:1053D00008F0961B881F7A95C9F78095089597FB6A
:1053E000072E16F4009407D077FD09D00E94092AF1
:1053F00007FC05D03EF4909581959F4F08957095D8
:1054000061957F4F0895EE0FFF1F0590F491E02DF9
:105410000994AA1BBB1B51E107C0AA1FBB1FA617FB
:10542000B70710F0A61BB70B881F991F5A95A9F74D
:1054300080959095BC01CD010895F999FECF92BD5C
:1054400081BDF89A992780B50895A8E1B0E042E0BF
:1054500050E00C94402A262FF999FECF1FBA92BD36
:1054600081BD20BD0FB6F894FA9AF99A0FBE019645
:1054700008950E942B2A272F0C942C2ADC01CB01A3
:10548000FC01F999FECF06C0F2BDE1BDF89A319654
:1054900000B40D9241505040B8F70895F894FFCFF2
:1054A00005EC08DD09BA09860952090101B5012890
:1054B00008140A321E3F4D362039BF0372033C03E5
:1054C0001C03E30256026F028802A102C10201021C
:0854D0000304050607080900AA
:00000001FF
